:02000002B0004C
:1040000000400B008C650B00000006000C00050250
:084010000401E50C00000000B2
:04401800B8600B0081
:10401C0009480A49884208B505D0094A824202D0AB
:10402C00121A01F087FF0748074A0021121A01F003
:10403C008FFF014808BD00BF0CE60320F8640B009D
:10404C0078E6032078E60320EDE7032070B5074EF1
:10405C00074C01F0C7F8A41BA4080025AC4200D102
:10406C0070BD56F8043B98470135F7E7A0640B0088
:10407C00C4640B0000F086B808B500F085F8BDE804
:10408C00084001F067B800F0A7BE00F0A5BE00F034
:10409C00ABBE00F0A9BE0078B0FA80F040097047C2
:1040AC000123037070470000F0B502F1080323F000
:1040BC00070385B000AFADEB030D1446684601F065
:1040CC0039FF0026694638460DF8046000F04FFFB2
:1040DC002349244C384600F070FF0546384600F062
:1040EC00FBFEA5B12670204A2049214800F031FB87
:1040FC0041F2883000F0ECFF1E4A1C491C4800F0CD
:10410C0028FB1D4A1D491A4800F023FB24E0694690
:10411C00384600F02CFF1A49384600F04EFF054691
:10412C00384600F0D9FE95B1012323700E4A13498D
:10413C000F4800F00EFB41F2883000F0C9FF0D4A29
:10414C000E490B4800F005FB0B4A0849DBE72378C6
:10415C00002BC8D0012BE9D01437BD46F0BD00BFF1
:10416C00CC600B00D8E60320D7600B00DE600B00A0
:10417C0078E60320F3600B00F7600B00FD600B008A
:10418C00D2600B00704700001FB5124800F066F9B2
:10419C0028B1104805B05DF804EB00F036BB68465A
:1041AC0000F00AFE00990B4800F048FA684600F04F
:1041BC0093FE0949074800F070FC084A0849054875
:1041CC0000F0C7FA074A0849024805B05DF804EB4D
:1041DC0000F0BFBA78E6032013610B00F3600B000C
:1041EC00DE600B00F7600B00FD600B0007B50021D3
:1041FC00012000F065FD002300930549054B06489E
:10420C0040F25B7200F04EF803B05DF804FB00BFA7
:10421C0025610B00B5400B0078E6032091F85C306B
:10422C0010B50446016013B1886D00F069FC20469E
:10423C0010BD10B5036893F85C20044612B1986D5C
:10424C0000F066FC204610BDF8B51F469DF82430E2
:10425C0004460D4616462BB1012380F85C305830CD
:10426C0000F046FC089B23630023636306B1A6643D
:10427C0025B1294604F1380000F08DFE069B23651C
:10428C00079BE069A4F84C70FF2BB8BFFF23A4F880
:10429C00543008B1FFF7FBFEB4F85400FFF7F5FEFD
:1042AC00E061F8BD2DE9FF4104460025174698460C
:1042BC000E4601F0E1FB0D49E56104F1380000F018
:1042CC0056FE9DF82830A564CDE90283FF220F230A
:1042DC00CDE90032204684F85C503B462A463146F4
:1042EC00FFF7B2FF204604B0BDE8F081F6600B008A
:1042FC0010B50446204601F01BFB0028FAD02046DE
:10430C0001F024F9C0B210BD2DE9F04705468846EE
:10431C00FFF7EEFFEB691870EB6993F800A04FF014
:10432C0001090AF0F00A00274C462846FFF7E0FF87
:10433C002646EB69985500F07F0313FB09F31F44E5
:10434C0001340306A4B2BFB24FEAC919EDD4631EFF
:10435C00BAF1300F88F800301ED12846FFF7C8FF9D
:10436C00EB6918552846FFF7C3FFF41C0236B6B2AA
:10437C00EB69A4B298550226B6B2BE420ED22846BC
:10438C00FFF7B6FFB5F85430A34284BFEB6918555C
:10439C000134A4B20136EFE70026EDE7B5F854304E
:1043AC00A3422CBF20460020BDE8F0872DE9F34145
:1043BC0015461E461A4607460023964602A802F0EA
:1043CC007F0CBEF17F0F03F10104034488BF4CF056
:1043DC00800CBEF17F0F4FEAD212E4B203F804CC8A
:1043EC001ED8C4F10403C4F10500E954224601A906
:1043FC00284405EB030801F09DFD721C2244414644
:10440C00384601F08EF8054600F06AFB621C7862B3
:10441C003244A8B2131A5842584102B0BDE8F08198
:10442C002346CAE70233F0B5054698B20023CE5CAA
:10443C009CB256B1B5F854C0844503F1010704D9B8
:10444C00441C16543B46A0B2F1E799B2411A0A44F7
:10445C00210A02F8021C02F8013CF0BD38B50446F2
:10446C0001F088F9002814BF0125002502D120464F
:10447C0001F0B8FA284638BD2DE9F04788B004465B
:10448C00DDF840809DF850A0894617461E46FFF780
:10449C00E5FF0546002840F0CD80214601A8FFF736
:1044AC00BDFEA16C002940F08880B4F84C20A16BB3
:1044BC002B46204601F0E0F800287AD00123238413
:1044CC009DF85430E269042B5B4B40F081801868F6
:1044DC0099889B79ADF80C108DF80E300290C2F8CB
:1044EC0005009DF80E30BDF80C10A2F80910D3721F
:1044FC000C23B8F1000F00F081809DF848009DF866
:10450C004420400140EAC20040F00600C0B2BAF1BB
:10451C00000F01D100F0FD001FB1002E70D140F052
:10452C008000E269D054226DE169581C12120A54C1
:10453C009A1CE169206D88540333E2694946204690
:10454C00FFF770FF0346B8F1000F0BD0E26941464C
:10455C002046FFF767FFE269139903462046FFF7F1
:10456C0061FF034667B1E26939462046FFF75AFFFF
:10457C0003462EB1E26931462046FFF753FF03464E
:10458C00053BE2699BB210212046FFF70FFF00F0BC
:10459C00A7FAC4E909004FF47A76204601F0C8F96D
:1045AC0088BB00F09DFAA36AC01A236D734398422E
:1045BC00F3D9204601F016FA35E002A800F0C2FE4D
:1045CC00B4F84C202B4602A9204601F035F973E7CC
:1045DC00D3F80700D3F80B10DB7B0DF1080CACE81B
:1045EC0003008CF8003002AB03CBC2F80500C2F814
:1045FC0009109CF8003053730E237AE7022086E7EB
:10460C0040F0C0008DE702A92046FFF77DFE04288C
:10461C00CFD1E369DE78002ECBD100F061FA012511
:10462C00A06284F82C6001A8FFF703FE284608B0AE
:10463C00BDE8F0870025F9E734610B007FB5012355
:10464C000422CDE904320023CDE90233CDE9003355
:10465C001A46FFF711FF07B05DF804FB2DE9F74F81
:10466C00DDF83C809DF834509DF8389004468B461C
:10467C0016461F46FFF7F2FE8246002851D021460F
:10468C0001A8FFF7CBFDB4F85420E069002101F03C
:10469C005FFC0523E26959462046FFF7C3FE6B1EFB
:1046AC00012B15D8218CE369013189B22184090AC7
:1046BC001954421CE369218C92B20230995480B295
:1046CC00B8F1000F04D0238C5A1C2284A8F80030B7
:1046DC0000210B188F42E2699BB20AD9B4F854C07E
:1046EC009C4506D916F801C002F803C0013189B205
:1046FC00EFE79DF8301000290CBF30213121B9F1C2
:10470C00000F01D041F00801022D0ED141F004013F
:10471C00053B9BB22046FFF749FE824601A8FFF7F6
:10472C0088FD504603B0BDE8F08F012D08BF41F065
:10473C000201EDE71FB5089C0394002402949DF838
:10474C001C4001949DF818400094FFF787FF04B0BB
:10475C0010BD30B587B0044610460591049201F0A7
:10476C0037FC00250346CDE90155DDE90421009510
:10477C002046FFF7DFFF07B030BD73B504460E4689
:10478C00FFF76CFE0546C8B1214601A8FFF746FDB0
:10479C00E36962221A70E36902225A70E369320AF1
:1047AC009A70E369DE70E1690422204600F0B9FEDC
:1047BC00051E01A818BF0125FFF73BFD284602B0D6
:1047CC0070BD73B504460E46FFF748FE0546C8B1EA
:1047DC00214601A8FFF722FDE36972221A70E369F2
:1047EC0002225A70E369320A9A70E369DE70E16959
:1047FC000422204600F095FE051E01A818BF0125D5
:10480C00FFF717FD284602B070BD2DE9F04F2DEDD6
:10481C00028B87B000AF0446FFF720FE8146F8B14B
:10482C00214607F11400FFF7F9FC00F059F9236D4C
:10483C004FF47A725343A26A821A9A42064603D8FC
:10484C00626A821A934221D294F82C307BB12046B2
:10485C0001F0C8F84FF0000907F11400FFF7E9FC6C
:10486C0048461C37BD46BDEC028BBDE8F08FE269B3
:10487C00C0211170E2695370E1690222204600F0F8
:10488C0050FEC4E90966012384F82C30204601F05F
:10489C004FF80028E0D007F113012046FFF734FD54
:1048AC0083460028D8D0E369A662197801F0F0029B
:1048BC00302A7FD1D4F830A0BAF1000FCCD097F8C1
:1048CC0013C06A4608EE102A03EB0C025178957857
:1048DC0005EB0125ADB205F108026946D208A1EB42
:1048EC00C20295460CF10302FA6003EB020E0DEBCB
:1048FC0005026846C7F808D07A60D7E901218A42D8
:10490C0006D00A461EF8018B02F8018BBA60F4E758
:10491C000022425593F80080F96808F00608ABEBCA
:10492C000C02033AB8F1020FA2EB0502294425D17F
:10493C0013F801E01944023A91F801B00CF10501A9
:10494C00294419440BEB0E2BD047E36940221A7013
:10495C00E3691FFA8BFB83F80180E3694FEA1B22A2
:10496C009A70E36983F803B0E1690422204600F0F1
:10497C00D8FD666218EE103A9D466DE7B8F1040F4B
:10498C0015D113F801E01944023A91F801B00CF179
:10499C000501294419440BEB0E2BD047E369502237
:1049AC001A70E36902221FFA8BFB5A70D5E719447F
:1049BC00D047DFE7502A08D19A78D97801EB022149
:1049CC0089B22046FFF7D9FE46E7402A12D1626B26
:1049DC00002A3FF441AFBBF1040F7FF43DAF11F05F
:1049EC00060F7FF439AF9978D87800EB012080B2AC
:1049FC00904731E7602A08D19A78D97801EB0221E7
:104A0C0089B22046FFF7DDFE26E7702ADFD0902A18
:104A1C003FF422AFC02A0AD1D0221A70E3690022D7
:104A2C005A70E1690222204600F07BFD14E7D02A7F
:104A3C0004BF002384F82C300EE7F7B504460F466C
:104A4C001646FFF70BFD054610B3214601A8FFF7EC
:104A5C00E5FB238C01339BB2EBB12384238CE269FD
:104A6C001B0A5371E369228C9A71E2690723394658
:104A7C002046FFF7D7FCE3691E54043883B2E26981
:104A8C0082212046FFF792FC054601A8FFF7D1FBD7
:104A9C00284603B0F0BD0123DFE70022FFF7CDBFAE
:104AAC0008B5024B1B689B68019308BD68020300A4
:104ABC0008B5024B1B68DB68019308BD6802030054
:104ACC0008B5024B1B685B69019308BD6C020300BF
:104ADC0008B5024B1B685B68019308BD1802030004
:104AEC0008B5024B1B685B69019308BD18020300F3
:104AFC0008B5024B1B681B6B019308BD48020300F1
:104B0C0008B5024B1B689B6B019308BD4802030060
:104B1C0008B5024B1B681B6C019308BD48020300CF
:104B2C0008B5024B1B685B6C019308BD480203007F
:104B3C0008B5024B1B685B69019308BD6402030056
:104B4C0008B5024B1B681B6A019308BD6402030085
:104B5C0008B5024B1B689B6A019308BD64020300F5
:104B6C0008B5024B1B68DB68019308BD3C020300CF
:104B7C0008B5024B1B681B69019308BD3C0203007E
:104B8C0008B5024B1B685B69019308BD3C0203002E
:104B9C0008B5024B1B689B69019308BD3C020300DE
:104BAC0008B5024B1B68DB69019308BD3C0203008E
:104BBC0008B5024B1B689B6A019308BD3C020300BD
:104BCC0008B5024B1B681B6C019308BD3C0203002B
:104BDC0008B5024B1B689B69019308BD38020300A2
:104BEC0008B5024B1B68DB69019308BD3802030052
:104BFC0008B5024B1B681B6A019308BD3802030001
:104C0C0008B5024B1B689B6A019308BD3802030070
:104C1C0008B5024B1B681B6B019308BD38020300DF
:104C2C0008B5024B1B689B6B019308BD380203004F
:104C3C0008B5024B1B681B68019308BD4C020300AE
:104C4C0008B5024B1B681B69019308BD4C0203009D
:104C5C0008B5024B1B685B69019308BD4C0203004D
:104C6C0008B5024B1B689B69019308BD4C020300FD
:104C7C0008B5024B1B68DB69019308BD4C020300AD
:104C8C0008B5024B1B681B6A019308BD4C0203005C
:104C9C0008B5024B1B681B6D019308BD6002030035
:104CAC0008B5024B1B685B68019308BD200203002A
:104CBC0008B5024B1B685B69019308BD2002030019
:104CCC0008B5024B1B68DB6A019308BD2002030088
:104CDC0008B5034B1B68D3F88830019308BD00005E
:104CEC002002030008B5034B1B68D3F894300193E2
:104CFC0008BD00002002030008B5024B1B685B686E
:104D0C00019308BD4002030008B5024B1B689B6869
:104D1C00019308BD4002030008B5024B1B68DB6819
:104D2C00019308BD4002030008B5024B1B681B69C8
:104D3C00019308BD4002030008B5024B1B685B6978
:104D4C00019308BD4002030008B5024B1B689B6928
:104D5C00019308BD4002030008B5024B1B68DB69D8
:104D6C00019308BD4002030008B5024B1B681B6A87
:104D7C00019308BD4002030008B5024B1B681B6B76
:104D8C00019308BD4002030008B5024B1B685B6B26
:104D9C00019308BD4002030008B5024B1B681B6C55
:104DAC00019308BD4002030008B5024B1B685B6C05
:104DBC00019308BD4002030008B5024B1B68DB6978
:104DCC00019308BD4402030008B5024B1B68DB6B62
:104DDC00019308BD4402030008B5024B1B681B6815
:104DEC00019308BD1C02030008B5024B1B685B68ED
:104DFC00019308BD1C02030008B5024B1B689B689D
:104E0C00019308BD1C02030008B5024B1B68DB6B49
:104E1C00019308BD1C02030008B5024B1B681B6CF8
:104E2C00019308BD1C02030008B5024B1B685B6CA8
:104E3C00019308BD1C020300002240681146FFF7D5
:104E4C0093BF002240681146FFF79EBF40680022C6
:104E5C00FFF792BF4068002281F00101FFF77CBF91
:104E6C00002340681A461946FFF76EBF00234068BE
:104E7C001A461946FFF760BF002240681146FFF73B
:104E8C0053BF002240681146FFF73EBF4068002226
:104E9C000221FFF741BF002340681A46FFF72CBFE1
:104EAC00024B03225A60024A1A607047DCE6032068
:104EBC004C610B00054B02221A60054B054A9A60A7
:104ECC000020C3E90000FFF7EBBE00BFF0E60320B3
:104EDC00E4E603200000FFFF10B504460068FFF76E
:104EEC0083FF204610BD10B50446006808B1FFF7DB
:104EFC007BFF0023C4E90133236010BD38B50446A1
:104F0C000D4600680131FFF777FF10B1C4E90005C9
:104F1C00012038BD10B50368044623B143688B42A9
:104F2C0001D3012010BD2046FFF7E8FF0028F9D07F
:104F3C00A368002BF5D122681370F2E737B50D4644
:104F4C00114601920446FFF7E5FF019A28B9204665
:104F5C00FFF7C9FF204603B030BDA2602946206888
:104F6C0000F0E8FF2268A3680021D154F2E7002387
:104F7C0013B5C0E9003304468360037341B108469E
:104F8C00019101F025F8019902462046FFF7D6FF62
:104F9C00204602B010BD13B5044659B10846019124
:104FAC0001F016F8019902462046FFF7C7FF20468C
:104FBC0002B010BDFFF797FFF9E708B582683AB960
:104FCC0021B10878B0FA80F0400900E0012008BD5A
:104FDC00006809B90078F5E700F0F0FFF2E710B5CA
:104FEC004368013B0446436063B903689B68984778
:104FFC00A368013BA3602BB923682046DB68BDE89E
:10500C001040184710BD0000024800230360FFF752
:10501C0087BD00BFF4E60320F8B506460D468F1891
:10502C000024BD420CD0336815F8011B9B68304638
:10503C009847031E01DB1C44F3E7002C08BF1C46F9
:10504C002046F8BD13B50446084659B1019100F04D
:10505C00BFFF23680199DB680246204602B0BDE819
:10506C001040184702B010BD03689B68184730B554
:10507C008BB00023012A8DF8243098BF0A2209AC8A
:10508C000D46B1FBF2F101FB125303F0FF03092BA8
:10509C0094BF30333733DBB2AA4204F8013DEFD969
:1050AC002146FFF7CFFF0BB030BD0000014B024A89
:1050BC001A607047F8E6032088610B00024B1A68EF
:1050CC00024B1A60704700BF0CE60320FCE603207D
:1050DC000021FFF7EDBD000010B5044B0360044642
:1050EC00806908B1FFF77BFF204610BD58620B00AA
:1050FC0010B50446FFF7F0FF20461C21FEF7C9FF50
:10510C00204610BD014B00229A60704700E7032037
:10511C00014B1860704700BF10E6032008B50B4B1D
:10512C0043B100F079F903681B699847002801DD49
:10513C00AFF30080064B43B100F0BEFD03681B6962
:10514C009847002801DDAFF3008008BD0000000087
:10515C000000000008B5FFF7E1FFFFF7C1FC014BB1
:10516C00186008BD58E703200548064A064908B5EB
:10517C00121A00F0DFFE054B054A1A6008BD00BF8D
:10518C0000F4032004F40320F4640B0000F4032067
:10519C001E1C279A07B5002300931A466FF077015F
:1051AC00FFF7A0FD03B05DF804FB000007B54388D2
:1051BC000A2B08D0502B0BD1094B1B684BB103B0F9
:1051CC005DF804EB1847FFF7E5FF03B05DF804FB4F
:1051DC00002300931A466FF07701FFF783FDF4E785
:1051EC0014E7032010B512480021FFF71DFE114BE8
:1051FC001A68114B9A42114B0CBF012200221A70F3
:10520C0001D0FFF7B1FFFFF763FC044600F0A8FEE6
:10521C000B4B13B12046AFF3008000210848FFF779
:10522C00D3FDBDE8104007480021FFF751BD00BF7A
:10523C001D510B0000F403201E1C279A10E70320BD
:10524C0000000000B9510B00704710B5182104463E
:10525C00FEF71FFF204610BDF0B5037D062B8DB069
:10526C000E4600F104074FF0000412D000F10805BF
:10527C0015F8011D0A223046FFF7F9FEAF4204442F
:10528C0019D0002CF4D02E213046FFF7EDFE04444B
:10529C00EEE72F236A4639460A208DF80040FFF7C7
:1052AC0047FC684600F094FE33680246DB686946AA
:1052BC0030469847044620460DB0F0BD10B5054B5E
:1052CC000446112240F8043B002100F041FE204628
:1052DC0010BD00BFB0610B000346074A10B543F880
:1052EC00042B01F1100251F8044B43F8044B91428A
:1052FC00F9D10A781A7010BDB0610B00037D042B34
:10530C0004D14068003818BF01207047062B07D124
:10531C0043683BB983682BB9C3681BB90069F1E7D3
:10532C00002070470120704710B59DF8084044EAF2
:10533C00032343EA024242EA0161042341600375FC
:10534C0010BD000007B5064B0360CB7800938B783B
:10535C004A780978FFF7E8FF03B05DF804FB00BF5B
:10536C00B0610B00417470477047704708B500215D
:10537C00007CFFF775FC40EAE07008BD08B5012120
:10538C00007CFFF76DFC40EAE07008BD08B5007CBE
:10539C00FFF75EFC20EAE07008BD08B5007CFFF763
:1053AC004FFC20EAE07008BD13B50446007C019167
:1053BC00FFF74EFC0028019901DC607C20B1207CB9
:1053CC00FFF756FC20EAE07002B010BD007CFFF73E
:1053DC0057BC10B514210446FEF75BFE204610BDE9
:1053EC0010B54FF47A73044608460021C4E9011342
:1053FC00044B23600123207463741146FFF718FCDF
:10540C00204610BDC4610B0010B5142204460021C7
:10541C0000F09EFD204610BD10B50F4C88B003A8BF
:10542C00FFF7F2FF2178BFF35B8F11F001010FD171
:10543C0020460191FEF72FFE019948B103AA0748B7
:10544C00FFF7CEFF2046FEF72BFE054800F06CFD63
:10545C00024808B010BD00BF18E703201CE703206A
:10546C0075530B0070474174704708B5007CFFF70B
:10547C009FFB20EAE07008BD08B5007CFFF778FBC5
:10548C0020EAE07008BD08B5007CFFF781FB40EA1C
:10549C00E07008BD08B5007CFFF772FB40EAE070D5
:1054AC0008BD007CFFF77CBB37B5457C04462DB1AD
:1054BC00207C03B0BDE83040FFF752BB007C01916B
:1054CC00FFF776FB00280199F2DC284603B030BDCB
:1054DC0010B514210446FEF7DCFD204610BD00007B
:1054EC0010B54FF47A730446084611460022C4E9FD
:1054FC000123044B2360012320746374FFF760FBCA
:10550C00204610BDF4610B0013B503688DF807102D
:10551C00DC6B01224FF0FF330DF10701A04702B005
:10552C0010BD10B40368DC6B4FF0FF33A4465DF87C
:10553C00044B604713B5134602688DF80710D46B03
:10554C000DF107010122A04702B010BD10B543694F
:10555C00B3F88620B3F884309A42044608D06369C5
:10556C00B3F88420511CA3F884101344187910BD8F
:10557C0003681B6998470028F1D14FF0FF30F6E71C
:10558C00704743691868C043C00F704770470000EC
:10559C00064B994210B500F10C0405D0084600F0FA
:1055AC00B1FB002808BF0024204610BD80610B0011
:1055BC0010B5AC210446FEF76CFD204610BDAC21A5
:1055CC00FEF767BD2DE9F0414FF0000886B01C4690
:1055DC00C0F8048005460E4617464146102202A824
:1055EC0000F0B6FC631C09D04FF47A73B4FBF3F2F1
:1055FC0003FB1244CDE902285C4304946869102330
:10560C000093006802AB41F2050240F6FF71FFF710
:10561C00DFFA002807DAFFF7F7FB03686B6000205E
:10562C0006B0BDE8F0816869002300683A4631464F
:10563C00FFF7EEFA031EEEDB1846F1E730B587B044
:10564C00044601AD6846FFF77DFE0FCD04340FC450
:10565C002B68237007B030BD70B54D69054B0446FF
:10566C008C3544F8043B06460FCD0FC42B682370D1
:10567C00304670BDB0610B002DE9F04398460368CD
:10568C0093B00D460024DB6A064617469847284619
:10569C006B46224621460094FFF70AFA054600287D
:1056AC0063D1009B002B4BD05B69002B48D006A824
:1056BC00FFF704FE009B5C696378022B04D1211D6B
:1056CC0006A8FFF7BBFF26E00A2B24D1112229469E
:1056DC0001A800F03DFCA368002B38D004F10803AE
:1056EC000DF1040C183418685968624603C208336B
:1056FC00A3429446F7D1062301A90CA88DF81430C7
:10570C00FFF7EAFD0DF1340CBCE80F0007AC0FC439
:10571C00DCF80030237006A8FFF7F0FD80B1336889
:10572C0007ADD3F82090124B0C930FCD0DAC0FC4DA
:10573C002B6823703A4643460CA93046C8470546A9
:10574C000098FFF7ADF9284613B0BDE8F083E36885
:10575C00002BC3D14FF6FF70D4F81090FFF7F0F97F
:10576C008145BBD104F11401AAE72546E8E700BF47
:10577C00B0610B0038B543691A68002A054610DA87
:10578C00B3F88620B3F884309A420AD103681B69B7
:10579C009847044628B92B682846DB6A9847204668
:1057AC0038BD0120FCE710B54369B3F88620B3F887
:1057BC0084309A42044605D06369B3F884201344BC
:1057CC00187910BD03681B6998470028F4D14FF075
:1057DC00FF30F6E7F8B543691746B3F88620B3F8FF
:1057EC0084309A4205460E4616D06969B1F8843069
:1057FC00B1F88640E41ABC4228BF3C46043322462A
:10580C001944304600F096FB6A69B2F884302344A0
:10581C00A2F884302046F8BD03681B69984700281D
:10582C00E3D14FF0FF34F5E742690023A2F884304E
:10583C004269A2F8863070472DE9F0411F46036893
:10584C000C46DB6A8AB0054616469847237DD5F888
:10585C001480042B0CBF02200A2006220121FFF722
:10586C00DFF9C8F800006B691B68002B08DA2B689D
:10587C002846DB6A0024984720460AB0BDE8F08130
:10588C002846FFF7D1FFB7B1002303A9F8B2039361
:10589C00ADF81030FFF714F90028E8D16869062339
:1058AC000093006803AB41F20B0240F6FF71FFF767
:1058BC008FF90028DBD11C22002103A800F048FB43
:1058CC00237D042B1DD14FF407733046ADF80C30FB
:1058DC00FFF73EF9ADF80E006068FFF731F9049060
:1058EC006B691C22186803A9FFF782F90028BED146
:1058FC0004340FCC6D698C350FC523682B700124D3
:10590C00BAE740F61C233046ADF80C30FFF720F90F
:10591C0005AEADF80E00231D04F114071868596884
:10592C00324603C20833BB421646F7D1D8E7000013
:10593C0030B54269B2F886308BB004462BB1B2F860
:10594C0084209A4201D1FFF76FFF61690868002833
:10595C0018DBB1F886507F2D14D804310823C5F11B
:10596C0080022944FFF74CF9002813DD6369B3F872
:10597C0086200AB9A3F884206369B3F88620104402
:10598C00A3F886006369B3F88600B3F88430C01AB4
:10599C000BB030BDFFF738FA03680B2BF2D0FFF7D2
:1059AC0033FA03680B2BEDD020230025CDE902350B
:1059BC00FFF72AFA03680193084B0949009302AADE
:1059CC002B463220FFF764F963691868FFF708F972
:1059DC0063694FF0FF321A60D4E700BF23620B00FB
:1059EC001C620B0010B5436904461868002801DBE3
:1059FC00FFF7F6F863694FF0FF321A606069112205
:105A0C0000218C3000F0A4FA2046BDE81040FFF7CE
:105A1C000BBF10B5002304460160C0F884308830F9
:105A2C00FFF74CFC204610BD73B500234FF47A727F
:105A3C00C0E901320E4A0361026043610446AC20A6
:105A4C000191FEF720FB051E05F10C0608D0012381
:105A5C00C5E90133074B01992B603046FFF7D9FF9D
:105A6C002046C4E90565FFF7DFFE02B070BD00BF3C
:105A7C0058620B003C620B0010B54FF0FF3104462E
:105A8C00FFF7D2FF204610BD10B504460068002871
:105A9C0001DBFFF7A5F8204610BD0C30FFF7F4BF73
:105AAC00002240681146FFF73FB9002240681146BA
:105ABC00FFF75AB9002240681146FFF765B94068F4
:105ACC000022FFF759B94068002281F00101FFF76D
:105ADC0043B9002340681A461946FFF735B900232D
:105AEC0040681A461946FFF727B90022406811464C
:105AFC00FFF70AB9406800220221FFF70DB9002315
:105B0C0040681A46FFF7F8B8024B04225A60024A62
:105B1C001A60704730E70320A4620B000023406832
:105B2C001A46FFF7E9B8406800220221FFF7F4B8E3
:105B3C00002240681146FFF7E7B800224068114682
:105B4C00FFF7F2B8002340681A461946FFF7F4B87D
:105B5C00002340681A461946FFF7F6B84068002142
:105B6C00FFF71AB940680021FFF71EB94068002200
:105B7C0081F00101FFF7F0B840680022FFF7FCB894
:105B8C00002240681146FFF7FFB80022406811461A
:105B9C00FFF7EAB82DE9F04395B014460D460746D9
:105BAC00FFF78CFB00211C220DA8009100F0D0F90E
:105BBC0040230C9320466B460CAA0021FEF778FF7D
:105BCC00044600284BD1024601216868FFF7ACF867
:105BDC000221804622466868FFF7A6F8009E81469F
:105BEC002146002E3BD0002939D17368022B03D0FB
:105BFC000A2B11D0F669F4E7B8F1000FFAD07169ED
:105C0C0006A8043107ADFFF79DFB0FCD3C1D0FC45B
:105C1C002B6823704146EDE7B9F1000FEAD07469A7
:105C2C00102201A800F094F906238DF8143001AD70
:105C3C0004F108031834186859682A4603C208335B
:105C4C00A3421546F7D101A906A807ADFFF744FBFF
:105C5C000FCD3C1D0FC42B6823704946CAE7009832
:105C6C00FEF71EFF384615B0BDE8F083024B034A21
:105C7C001A6000225A60704738E70320E0620B007C
:105C8C007047000038B5044614252A46002100F060
:105C9C005FF925804025074925812846258200F09B
:105CAC002FF804496060284600F02AF8E06020468E
:105CBC0038BD00BF14630B0030B50E4D2978BFF30F
:105CCC005B8F11F0010487B011D12846FEF7E3F980
:105CDC0068B101A8FFF7D6FF01AA21460648FFF7D5
:105CEC00FFFB2846FEF7DCF9044800F01DF90248DA
:105CFC0007B030BD40E7032044E703208D5C0B0068
:105D0C00FEF7C3B9014900F0F9B800BF30630B00CE
:105D1C007FB500241023CDE90234036815469E6933
:105D2C0012686B46CDE90044B0479DF8043003F08F
:105D3C000603062B03BF009B2B600120204604B0FA
:105D4C0070BD0098904214BF0120062070470000DF
:105D5C0010B5034B0360044600F0CDF8204610BD8F
:105D6C0070630B0010B50446FFF7F2FF20460821C4
:105D7C00FEF78FF9204610BD2DE9F0411F46DDE9F5
:105D8C000834DDF8188098450646154607D1079962
:105D9C0000F0B4F818B165710020BDE8F081394607
:105DAC00304600F0ABF80028F6D00123C4F8008090
:105DBC002571A371F0E738B515461C4600F09EF826
:105DCC0020B10823E36006232560237138BD73B529
:105DDC0005460C4601921E4600F090F850B9032E71
:105DEC0008D82368019A5B692946204602B0BDE8B1
:105DFC007040184702B070BD10B5034B03600446E9
:105E0C00FFF7A6FF204610BDD0630B0010B504466B
:105E1C00FFF7F2FF20460C21FEF73BF9204610BDA0
:105E2C00F7B5089F974205460E4614460AD0A86857
:105E3C0002680897156A31462246AC4603B0BDE8A5
:105E4C00F04060471946019300F058F8019B002878
:105E5C00EDD0062003B0F0BD2DE9F14F0D461946EB
:105E6C00DDE90A4BDDE90CA681461746984600F0A1
:105E7C0045F890B1002D3460377109DB61198A4502
:105E8C000CBF06210121B171002001B0BDE8F08FDB
:105E9C000235F9D10123B371F6E7544506D15946C1
:105EAC00484600F02BF808B17771EDE7D9F80800F7
:105EBC000368CDE90CA6CDE90A4BDC693A464346AA
:105ECC002946A44601B0BDE8F04F60472DE9F041EA
:105EDC0007460C4615461E46FFF76DFF48B9B868D5
:105EEC0003689F692A4633462146BC46BDE8F0410B
:105EFC006047BDE8F081704700207047814208B5CB
:105F0C000ED0406803782A2B0CD049680B782A2BCA
:105F1C0008BF013100F052F8B0FA80F0400908BD1A
:105F2C000120FCE70020FAE7002301461A46184638
:105F3C0000F056B80A44914200F1FF3300D170478B
:105F4C0010B511F8014B03F8014F9142F9D110BD76
:105F5C0002440346934200D1704703F8011BF9E752
:105F6C0038B5104B1D68AB6B0446B3B91820FEF75F
:105F7C0033FF0246A86320B90B4B0C484221FEF7B5
:105F8C004BFF0B490B4BC0E900130B4B83600B23EE
:105F9C00838100210120C2E90401AB6B00221C614A
:105FAC005A6138BD10E6032009640B0020640B0015
:105FBC000E33CDAB34126DE6ECDE050010F8012B80
:105FCC0011F8013B012A28BF9A42F7D0D01A70472A
:105FDC00034613F8012B002AFBD1181A013870471D
:105FEC002DE9F843DFF8B8800646D8F800001F46C4
:105FFC000D46914600F056F8254B1C6834B9254CDB
:10600C001C60254B13B11B68C4F8883063681F2BC8
:10601C0007DDD8F8000000F047F84FF0FF30BDE87E
:10602C00F8834EB3D4F8880088B91C4B23B9D8F840
:10603C00000000F038F8F0E74FF48470FEF7CCFE67
:10604C000028F4D00023C0E94033C4F8880063680A
:10605C0040F8239001229A4000EB8301D0F80031E4
:10606C001343C0F80031022EC1F8807002BFD0F883
:10607C0004311343C0F804316368D8F800005A1C8B
:10608C000233626044F8235000F00EF80020C6E79B
:10609C00E8E703205CE7032000000000E54D0B005F
:1060AC0074E6032070477047704700001D400B00DA
:1060BC0059400B0081400B0085400B000000000094
:1060CC004E4F52544800454153540059454C4C4F87
:1060DC005700696E74657273746174654C69676896
:1060EC00742F656173740052454400475245454E08
:1060FC0000696E74657273746174654C6967687459
:10610C002F6E6F72746800696E746572737461744B
:10611C006553656E736F7273006C61622E74686583
:10612C0077636C2E636F6D0000044D515454040062
:10613C00064D51497364700300000000000000001C
:10614C00A34E0B00994E0B008F4E0B00854E0B008F
:10615C00794E0B006D4E0B00695B0B00715B0B00F5
:10616C00614E0B00594E0B004F4E0B00454E0B0071
:10617C00A15B0B00000000000000000061707000CB
:10618C0025592D256D2D25645425483A254D3A2544
:10619C0053257A0061736374696D6500000000001B
:1061AC000000000065520B0055520B0057520B00BB
:1061BC00000000000000000077530B00DF530B00C1
:1061CC00B5530B0025500B00A7530B0079530B0054
:1061DC0089530B00D9530B0099530B0071530B00CF
:1061EC00000000000000000071540B00DD540B0097
:1061FC00B5540B0025500B0085540B00A1540B001B
:10620C0093540B00AF540B0073540B0077540B00DA
:10621C00776972696E670072656376206572726F5A
:10622C0072203D20256400000000000000000000EA
:10623C0099550B00BD550B00A75A0B00CB550B0005
:10624C009D550B000000000000000000E5500B0005
:10625C00FD500B0015550B002F550B003D590B0035
:10626C0059550B00B3570B008D550B0045580B00BF
:10627C0085560B00E1570B00F1590B0081570B00B1
:10628C008F550B0041550B00D1550B0065560B007B
:10629C0000000000000000000B5B0B00015B0B001A
:1062AC00F75A0B00AD5A0B00EB5A0B00DF5A0B00E0
:1062BC00695B0B00715B0B00D35A0B00CB5A0B00C4
:1062CC00C15A0B00B75A0B00A15B0B000000000079
:1062DC0000000000295B0B00335B0B003D5B0B00E7
:1062EC00475B0B00515B0B005D5B0B00695B0B00AC
:1062FC00715B0B00795B0B00855B0B008D5B0B00FE
:10630C00975B0B00A15B0B0000537431395F53702A
:10631C005F6D616B655F7368617265645F74616703
:10632C000000000070630B0015630B00D0630B00C2
:10633C0044630B00F4630B004E31305F5F6378787D
:10634C00616269763131375F5F636C6173735F745F
:10635C007970655F696E666F450000000000000093
:10636C0038630B005D5D0B00715D0B00055F0B006E
:10637C00055F0B00DB5D0B001D5D0B00C35D0B00AF
:10638C00855D0B004F5D0B00D0630B00A0630B0011
:10639C0038630B004E31305F5F63787861626976E9
:1063AC003132305F5F73695F636C6173735F7479F3
:1063BC0070655F696E666F450000000000000000AC
:1063CC0094630B00055E0B00195E0B00055F0B0060
:1063DC00055F0B00DB5D0B001D5D0B00D95E0B0038
:1063EC00655E0B002D5E0B0070630B00FC630B00F5
:1063FC00537439747970655F696E666F00524545E8
:10640C004E54206D616C6C6F6320737563636565AE
:10641C00646564002F6D6E742F776F726B7370618F
:10642C0063652F776F726B73706163652F4743439E
:10643C002D31302D706970656C696E652F6A656ED3
:10644C006B696E732D4743432D31302D7069706528
:10645C006C696E652D34385F323032303131323404
:10646C005F313630363138303634312F7372632F1A
:10647C006E65776C69622F6E65776C69622F6C69DB
:10648C0062632F7374646C69622F72616E642E6325
:10649C0000000000F9410B00AD4E0B00C14E0B008B
:1064AC0015500B00B9500B00C9500B0011510B00CB
:1064BC00155B0B00795C0B00000000000000000075
:0464CC0000000000CC
:1064D000040000001400000003000000474E5500B7
:1064E000BCD58B8DB4463661044543ACD34596FA92
:0464F00026C1702829
:0464F40000000000A4
:1064F800A0610B0014E6032000000000000000006B
:106508000000000000000000000000000000000083
:106518000000000000000000000000000000000073
:106528000000000000000000000000000000000063
:106538000000000000000000000000000000000053
:106548000000000000000000000000000000000043
:0C6558000000000000000000ECE7032041
:10656400FFFFFFFF00000102030405060708090AF4
:106574000B0C0D0E0F101112131415161718191AEF
:086584001B1C1D1E1F20280036
:04658C0078563412F7
:04000003B000401CED
:00000001FF
